:100000000C942A000C9447000C9447000C94470071
:100010000C9447000C9447000C9447000C94470044
:100020000C9447000C9447000C94B5020C944700C4
:100030000C9447000C9447000C9447000C94470024
:100040000C9447000C9447000C9447000C94470014
:100050000C94470011241FBECFE5D8E0DEBFCDBF12
:1000600010E0A0E6B0E0E0EEF6E002C005900D92F0
:10007000A838B107D9F720E0A8E8B0E001C01D9288
:10008000AF38B207E1F70E9449000C946E030C945C
:100090000000CF93DF93CDB7DEB7EB970FB6F894A0
:1000A000DEBF0FBECDBF0E94FF020E9405010E946D
:1000B0002E0286E0E0E6F0E0DE01119601900D925E
:1000C0008A95E1F785E0E6E6F0E0DE01179601901B
:1000D0000D928A95E1F78FE49BE49D878C871E86BD
:1000E00086E0EBE6F0E0DE011F9601900D928A9526
:1000F000E1F786E0E0E6F0E0DE01559601900D9232
:100100008A95E1F786E1E1E7F0E0DE01959601905E
:100110000D928A95E1F783E68BAFCE0145960E945A
:100120004B03BE016F5F7F4FCE0145960E94A60133
:10013000882371F1CE014B960E944B03CE014B9662
:100140000E94BD018C01CE010C960E9438038DE007
:100150000E942703CE01CB960E942D038DE00E94C2
:1001600027034BADB80180E00E940801882321F0ED
:10017000CE010F960E94380388EE93E00E948F0212
:10018000CE010C960E9438038DE00E942703C5CF54
:10019000BE01695F7F4FCE0145960E94A60188236C
:1001A00061F1CE014B960E944B03CE014B960E940B
:1001B000BD018C01CE010C960E9438038DE00E9497
:1001C0002703CE0185960E943803AE01455C5F4F40
:1001D000B80180E00E944D01882321F0CE010F96E6
:1001E0000E94380388EE93E00E948F028BAD0E943C
:1001F00027038DE00E94270390CFCE010F960E9427
:1002000038038DE00E94270388CF0E94D40108950F
:10021000FF920F931F93CF93DF93062FF72E142F88
:1002200090E0880F991FC82FC0650E94E90188E0FF
:100230000E94FC01882311F0D0E001C0D1EB60E006
:100240008C2F0E94070288E10E94FC01811101C0ED
:10025000D1EB8F2D0E94160288E20E94FC018111D1
:1002600001C0D1EB802F0E94160288E20E94FC019F
:10027000811101C0D1EB812F0E94160288E20E94F9
:10028000FC01811101C0D1EB0E94F2018D2FDF91A1
:10029000CF911F910F91FF900895EF92FF920F93CE
:1002A0001F93CF93DF93F62EE72E8A0190E0880FFD
:1002B000991FC82FC0650E94E90188E00E94FC01D7
:1002C000882311F0D0E001C0D1EB60E08C2F0E94B8
:1002D000070288E10E94FC01811101C0D1EB8E2D43
:1002E0000E94160288E20E94FC01811101C0D1EB3C
:1002F0008F2D0E94160288E20E94FC01811101C02C
:10030000D1EB0E94E90180E10E94FC01811101C052
:10031000D1EB61E08C2F0E94070280E40E94FC0177
:10032000811101C0D1EBC8010E94240288E50E941E
:10033000FC01811101C0D1EB0E94F2018D2FDF91F0
:10034000CF911F910F91FF90EF900895DC01FB0179
:1003500006C0992341F0222331F0119631969C91E9
:1003600020819217B1F3911104C0222321F080E083
:10037000089580E0089581E00895FC0180E090E018
:100380000FC0AC01440F551F880F991F880F991F8C
:10039000880F991F840F951F820F911DC09731966A
:1003A00020812111EECF089586B7846086BF80E258
:1003B00080B981B1816081B981B1826081B981B137
:1003C000887F81B986B7806886BF86B7846086BF1C
:1003D000089586B7806286BF06B607FEFDCF84E02B
:1003E00086BF089586B7806886BF86B7806186BF5E
:1003F00086B7846086BF089521B1287F30E090E001
:100400002817390711F481E0089580E0089590E0FD
:10041000880F991F862B83B986B7806886BF86B7F9
:10042000846086BF06B607FEFDCF089583B986B700
:10043000806886BF86B7806486BF86B7846086BFC3
:1004400006B607FEFDCF0895FC0196B7946096BFEF
:1004500006B607FEFDCF83B18083089583B78F7BF7
:1004600083BF83B7886083BF8FB780688FBF89B72A
:10047000826089BF03B606FC0BC003B603FE0AC048
:100480000FB607FE09C009B601FC08C081E4089553
:1004900081E4089581E4089581E4089580E0089559
:1004A00012BE8DE78CBF83B7816083BF83B7826044
:1004B00083BF83B78B7F83BF03B600FE08C003B63C
:1004C00001FE07C003B602FE06C082E4089582E47E
:1004D000089582E4089580E0089583B78E7F83BFF6
:1004E00083B78D7F83BF83B78B7F83BF89B78D7FB2
:1004F00089BF03B600FC0BC003B601FC0AC003B6FB
:1005000002FC09C009B601FE08C082E4089582E435
:10051000089582E4089582E4089580E0089520918A
:100520008A00213001F121E020938A0010928C0092
:1005300010928B0090938E0080938D000E942E026B
:100540000E94500220918B0030918C0080918D0090
:1005500090918E0082179307A8F70E946D02109267
:100560008A0080E0089585E408951F920F920FB6E7
:100570000F9211242F933F934F935F936F937F9329
:100580008F939F93AF93BF93EF93FF9380918B00D3
:1005900090918C00019690938C0080938B00209119
:1005A0008B0030918C0080918D0090918E002817E7
:1005B0003907A1F48091880090918900892B71F00E
:1005C00010928C0010928B0089B78D7F89BF10929A
:1005D0008A00E0918800F09189000995FF91EF91E0
:1005E000BF91AF919F918F917F916F915F914F914B
:1005F0003F912F910F900FBE0F901F9018958AB1C9
:1006000080618AB9549B02C080E001C081E89AB140
:1006100098609AB9539B81E890B5906890BD579BBC
:1006200081E890B59F7B90BD569981E890B590BDCB
:1006300090B5977F90BD90B5966090BD90B59F772F
:1006400090BD579981E810BC93E399B908955D9BDB
:10065000FECF8CB98CB182E80895009739F05F9B8A
:10066000FECF2CB1FC01208380E0089583E808953B
:100670001F93CF93DF93EC0110E005C00E94270386
:10068000811114E8219688818111F8CF812FDF91A3
:10069000CF911F9108950F931F93CF93DF938C01F8
:1006A0000E942D03811102C0D0E001C0D5E8C0E056
:1006B00008C0CF5FC8018C0F911D0E942D038111CE
:1006C000D5E8F801EC0FF11D80818D3091F7108293
:1006D0008D2FDF91CF911F910F910895F894FFCF47
:1006E00057524954450052454144004E4F544F4BD8
:1006F0000074686520646174612073746F7265644E
:08070000206973203A2000007B
:00000001FF
